{
  "_format": "hh-sol-artifact-1",
  "contractName": "WavePortal",
  "sourceName": "contracts/WavePortal.sol",
  "abi": [
    {
      "inputs": [],
      "stateMutability": "nonpayable",
      "type": "constructor"
    },
    {
      "inputs": [],
      "name": "getTotalWaves",
      "outputs": [
        {
          "internalType": "uint256",
          "name": "",
          "type": "uint256"
        }
      ],
      "stateMutability": "view",
      "type": "function"
    },
    {
      "inputs": [],
      "name": "getWavedAnime",
      "outputs": [
        {
          "internalType": "string",
          "name": "",
          "type": "string"
        }
      ],
      "stateMutability": "view",
      "type": "function"
    },
    {
      "inputs": [
        {
          "internalType": "string",
          "name": "_anime",
          "type": "string"
        }
      ],
      "name": "getWavedAnimeTimes",
      "outputs": [
        {
          "internalType": "uint256",
          "name": "",
          "type": "uint256"
        }
      ],
      "stateMutability": "view",
      "type": "function"
    },
    {
      "inputs": [],
      "name": "wave",
      "outputs": [],
      "stateMutability": "nonpayable",
      "type": "function"
    },
    {
      "inputs": [
        {
          "internalType": "string",
          "name": "_anime",
          "type": "string"
        }
      ],
      "name": "waveAnime",
      "outputs": [],
      "stateMutability": "nonpayable",
      "type": "function"
    }
  ],
  "bytecode": "0x608060405234801561001057600080fd5b506100596040518060400160405280601981526020017f536d61727420636f6e7472616374202d2053544152542121210000000000000081525061005e60201b6103ae1760201c565b6101e1565b6100fa81604051602401610072919061015f565b6040516020818303038152906040527f41304fac000000000000000000000000000000000000000000000000000000007bffffffffffffffffffffffffffffffffffffffffffffffffffffffff19166020820180517bffffffffffffffffffffffffffffffffffffffffffffffffffffffff83818316178352505050506100fd60201b60201c565b50565b60008151905060006a636f6e736f6c652e6c6f679050602083016000808483855afa5050505050565b600061013182610181565b61013b818561018c565b935061014b81856020860161019d565b610154816101d0565b840191505092915050565b600060208201905081810360008301526101798184610126565b905092915050565b600081519050919050565b600082825260208201905092915050565b60005b838110156101bb5780820151818401526020810190506101a0565b838111156101ca576000848401525b50505050565b6000601f19601f8301169050919050565b610aa4806101f06000396000f3fe608060405234801561001057600080fd5b50600436106100575760003560e01c80636fe15b441461005c5780639a2cdc0814610066578063bf7cdae414610084578063e656ce6c146100a0578063e961684a146100be575b600080fd5b6100646100ee565b005b61006e610146565b60405161007b91906108c4565b60405180910390f35b61009e60048036038101906100999190610731565b610191565b005b6100a86102b4565b6040516100b5919061080b565b60405180910390f35b6100d860048036038101906100d39190610731565b610383565b6040516100e591906108c4565b60405180910390f35b600080815480929190610100906109b6565b91905055506101446040518060400160405280600d81526020017f257320686173207761766564210000000000000000000000000000000000000081525033610447565b565b60006101896040518060400160405280601781526020017f5765206861766520256420746f74616c207761766573210000000000000000008152506000546104e3565b600054905090565b6000808154809291906101a3906109b6565b9190505550600182826040516101ba9291906107f2565b908152602001604051809103902060008154809291906101d9906109b6565b91905055508181600260003373ffffffffffffffffffffffffffffffffffffffff1673ffffffffffffffffffffffffffffffffffffffff168152602001908152602001600020919061022c929190610644565b506102b06040518060400160405280600f81526020017f416e696d6520257320776176656421000000000000000000000000000000000081525083838080601f016020809104026020016040519081016040528093929190818152602001838380828437600081840152601f19601f8201169050808301925050505050505061057f565b5050565b6060600260003373ffffffffffffffffffffffffffffffffffffffff1673ffffffffffffffffffffffffffffffffffffffff168152602001908152602001600020805461030090610984565b80601f016020809104026020016040519081016040528092919081815260200182805461032c90610984565b80156103795780601f1061034e57610100808354040283529160200191610379565b820191906000526020600020905b81548152906001019060200180831161035c57829003601f168201915b5050505050905090565b6000600183836040516103979291906107f2565b908152602001604051809103902054905092915050565b610444816040516024016103c2919061080b565b6040516020818303038152906040527f41304fac000000000000000000000000000000000000000000000000000000007bffffffffffffffffffffffffffffffffffffffffffffffffffffffff19166020820180517bffffffffffffffffffffffffffffffffffffffffffffffffffffffff838183161783525050505061061b565b50565b6104df828260405160240161045d92919061082d565b6040516020818303038152906040527f319af333000000000000000000000000000000000000000000000000000000007bffffffffffffffffffffffffffffffffffffffffffffffffffffffff19166020820180517bffffffffffffffffffffffffffffffffffffffffffffffffffffffff838183161783525050505061061b565b5050565b61057b82826040516024016104f9929190610894565b6040516020818303038152906040527f9710a9d0000000000000000000000000000000000000000000000000000000007bffffffffffffffffffffffffffffffffffffffffffffffffffffffff19166020820180517bffffffffffffffffffffffffffffffffffffffffffffffffffffffff838183161783525050505061061b565b5050565b610617828260405160240161059592919061085d565b6040516020818303038152906040527f4b5c4277000000000000000000000000000000000000000000000000000000007bffffffffffffffffffffffffffffffffffffffffffffffffffffffff19166020820180517bffffffffffffffffffffffffffffffffffffffffffffffffffffffff838183161783525050505061061b565b5050565b60008151905060006a636f6e736f6c652e6c6f679050602083016000808483855afa5050505050565b82805461065090610984565b90600052602060002090601f01602090048101928261067257600085556106b9565b82601f1061068b57803560ff19168380011785556106b9565b828001600101855582156106b9579182015b828111156106b857823582559160200191906001019061069d565b5b5090506106c691906106ca565b5090565b5b808211156106e35760008160009055506001016106cb565b5090565b60008083601f8401126106f957600080fd5b8235905067ffffffffffffffff81111561071257600080fd5b60208301915083600182028301111561072a57600080fd5b9250929050565b6000806020838503121561074457600080fd5b600083013567ffffffffffffffff81111561075e57600080fd5b61076a858286016106e7565b92509250509250929050565b61077f81610906565b82525050565b600061079183856108fb565b935061079e838584610942565b82840190509392505050565b60006107b5826108df565b6107bf81856108ea565b93506107cf818560208601610951565b6107d881610a5d565b840191505092915050565b6107ec81610938565b82525050565b60006107ff828486610785565b91508190509392505050565b6000602082019050818103600083015261082581846107aa565b905092915050565b6000604082019050818103600083015261084781856107aa565b90506108566020830184610776565b9392505050565b6000604082019050818103600083015261087781856107aa565b9050818103602083015261088b81846107aa565b90509392505050565b600060408201905081810360008301526108ae81856107aa565b90506108bd60208301846107e3565b9392505050565b60006020820190506108d960008301846107e3565b92915050565b600081519050919050565b600082825260208201905092915050565b600081905092915050565b600061091182610918565b9050919050565b600073ffffffffffffffffffffffffffffffffffffffff82169050919050565b6000819050919050565b82818337600083830152505050565b60005b8381101561096f578082015181840152602081019050610954565b8381111561097e576000848401525b50505050565b6000600282049050600182168061099c57607f821691505b602082108114156109b0576109af610a2e565b5b50919050565b60006109c182610938565b91507fffffffffffffffffffffffffffffffffffffffffffffffffffffffffffffffff8214156109f4576109f36109ff565b5b600182019050919050565b7f4e487b7100000000000000000000000000000000000000000000000000000000600052601160045260246000fd5b7f4e487b7100000000000000000000000000000000000000000000000000000000600052602260045260246000fd5b6000601f19601f830116905091905056fea26469706673582212203f03e746766a9868876eed4f8986fa8f246b0d3b15e72d267a6b1b09a3eeb49c64736f6c63430008040033",
  "linkReferences": {},
  "deployedLinkReferences": {}
}